{
  "contractName": "BNPairingPrecompileCostEstimator",
  "abi": [
    {
      "inputs": [],
      "name": "baseCost",
      "outputs": [
        {
          "internalType": "uint256",
          "name": "",
          "type": "uint256"
        }
      ],
      "stateMutability": "view",
      "type": "function"
    },
    {
      "inputs": [],
      "name": "perPairCost",
      "outputs": [
        {
          "internalType": "uint256",
          "name": "",
          "type": "uint256"
        }
      ],
      "stateMutability": "view",
      "type": "function"
    },
    {
      "inputs": [],
      "name": "run",
      "outputs": [],
      "stateMutability": "nonpayable",
      "type": "function"
    },
    {
      "inputs": [
        {
          "internalType": "uint256",
          "name": "pairCount",
          "type": "uint256"
        }
      ],
      "name": "getGasCost",
      "outputs": [
        {
          "internalType": "uint256",
          "name": "",
          "type": "uint256"
        }
      ],
      "stateMutability": "view",
      "type": "function"
    }
  ],
  "bytecode": "0x608060405234801561001057600080fd5b50610780806100206000396000f3fe608060405234801561001057600080fd5b506004361061004c5760003560e01c80634e79f8ca146100515780639382255714610076578063c04062261461007f578063ebfd94b214610089575b600080fd5b61006461005f3660046106b4565b610092565b60405190815260200160405180910390f35b61006460005481565b6100876100b3565b005b61006460015481565b600080546001546100a390846106fc565b6100ad919061071b565b92915050565b6100bb6100bd565b565b60006100c76100f5565b905060006100d3610378565b90506100df8282610733565b60018190556100ee9083610733565b6000555050565b6000806040518060c0016040528060018152602001600281526020017f198e9393920d483a7260bfb731fb5d25f1aa493335a9e71297e485b7aef312c281526020017f1800deef121f1e76426a00665e5c4479674322d4f75edadd46debd5cd992f6ed81526020017f090689d0585ff075ec9e99ad690c3395bc4b313370b38ef355acdadcd122975b81526020017f12c85ea5db8c6deb4aab71808dcb408fe3d1e7690c43d37b4ce6cc0166fa7daa81525090506101b1610696565b6000806107d05a6101c29190610733565b90506107d05a116102405760405162461bcd60e51b815260206004820152603d60248201527f424e50616972696e67507265636f6d70696c65436f7374457374696d61746f7260448201527f3a206e6f7420656e6f756768206761732c2073696e676c65207061697200000060648201526084015b60405180910390fd5b60005a905060208460c087600886fa925060005a61025e9083610733565b9050836102d35760405162461bcd60e51b815260206004820152603c60248201527f424e50616972696e67507265636f6d70696c65436f7374457374696d61746f7260448201527f3a2073696e676c6520706169722063616c6c206973206661696c6564000000006064820152608401610237565b84511561036e5760405162461bcd60e51b815260206004820152604360248201527f424e50616972696e67507265636f6d70696c65436f7374457374696d61746f7260448201527f3a2073696e676c6520706169722063616c6c20726573756c74206d757374206260648201527f6520300000000000000000000000000000000000000000000000000000000000608482015260a401610237565b9695505050505050565b60008060405180610180016040528060018152602001600281526020017f198e9393920d483a7260bfb731fb5d25f1aa493335a9e71297e485b7aef312c281526020017f1800deef121f1e76426a00665e5c4479674322d4f75edadd46debd5cd992f6ed81526020017f090689d0585ff075ec9e99ad690c3395bc4b313370b38ef355acdadcd122975b81526020017f12c85ea5db8c6deb4aab71808dcb408fe3d1e7690c43d37b4ce6cc0166fa7daa815260200160018152602001600281526020017f198e9393920d483a7260bfb731fb5d25f1aa493335a9e71297e485b7aef312c281526020017f1800deef121f1e76426a00665e5c4479674322d4f75edadd46debd5cd992f6ed81526020017f275dc4a288d1afb3cbb1ac09187524c7db36395df7be3b99e673b13a075a65ec81526020017f1d9befcd05a5323e6da4d435f3b617cdb3af83285c2df711ef39c01571827f9d81525090506104db610696565b6000806107d05a6104ec9190610733565b90506107d05a116105655760405162461bcd60e51b815260206004820152603d60248201527f424e50616972696e67507265636f6d70696c65436f7374457374696d61746f7260448201527f3a206e6f7420656e6f756768206761732c20636f75706c6520706169720000006064820152608401610237565b60005a905060208461018087600886fa925060005a6105849083610733565b9050836105f95760405162461bcd60e51b815260206004820152603c60248201527f424e50616972696e67507265636f6d70696c65436f7374457374696d61746f7260448201527f3a20636f75706c6520706169722063616c6c206973206661696c6564000000006064820152608401610237565b845160011461036e5760405162461bcd60e51b815260206004820152604360248201527f424e50616972696e67507265636f6d70696c65436f7374457374696d61746f7260448201527f3a20636f75706c6520706169722063616c6c20726573756c74206d757374206260648201527f6520310000000000000000000000000000000000000000000000000000000000608482015260a401610237565b60405180602001604052806001906020820280368337509192915050565b6000602082840312156106c657600080fd5b5035919050565b7f4e487b7100000000000000000000000000000000000000000000000000000000600052601160045260246000fd5b6000816000190483118215151615610716576107166106cd565b500290565b6000821982111561072e5761072e6106cd565b500190565b600082821015610745576107456106cd565b50039056fea26469706673582212209cb88513eb23860afc9e8565d8bc63263bd531f19062fc4d70f3be2b9798735f64736f6c634300080e0033",
  "immutableReferences": {},
  "source": "// SPDX-License-Identifier: MIT\npragma solidity ^0.8.7;\n\ncontract BNPairingPrecompileCostEstimator {\n    uint256 public baseCost;\n    uint256 public perPairCost;\n\n   \n    uint256 private constant G1_X = 1;\n    uint256 private constant G1_Y = 2;\n\n  \n    uint256 private constant G2_X0 = 10857046999023057135944570762232829481370756359578518086990519993285655852781;\n    uint256 private constant G2_X1 = 11559732032986387107991004021392285783925812861821192530917403151452391805634;\n    uint256 private constant G2_Y0 = 8495653923123431417604973247489272438418190587263600148770280649306958101930;\n    uint256 private constant G2_Y1 = 4082367875863433681332203403145435568316851327593401208105741076214120093531;\n    uint256 private constant N_G2_Y0 = 13392588948715843804641432497768002650278120570034223513918757245338268106653;\n    uint256 private constant N_G2_Y1 = 17805874995975841540914202342111839520379459829704422454583296818431106115052;\n\n    function run() external {\n        _run();\n    }\n\n    function getGasCost(uint256 pairCount) external view returns (uint256) {\n        return pairCount * perPairCost + baseCost;\n    }\n\n    function _run() internal {\n        uint256 gasCost1Pair = _gasCost1Pair();\n        uint256 gasCost2Pair = _gasCost2Pair();\n        perPairCost = gasCost2Pair - gasCost1Pair;\n        baseCost = gasCost1Pair - perPairCost;\n    }\n\n    function _gasCost1Pair() internal view returns (uint256) {\n        uint256[6] memory input = [G1_X, G1_Y, G2_X1, G2_X0, G2_Y1, G2_Y0];\n        uint256[1] memory out;\n        bool callSuccess;\n        uint256 suppliedGas = gasleft() - 2000;\n        require(\n            gasleft() > 2000,\n            \"BNPairingPrecompileCostEstimator: not enough gas, single pair\"\n        );\n        uint256 gasT0 = gasleft();\n \n        assembly {\n            callSuccess := staticcall(suppliedGas, 8, input, 192, out, 0x20)\n        }\n        uint256 gasCost = gasT0 - gasleft();\n        require(\n            callSuccess,\n            \"BNPairingPrecompileCostEstimator: single pair call is failed\"\n        );\n        require(\n            out[0] == 0,\n            \"BNPairingPrecompileCostEstimator: single pair call result must be 0\"\n        );\n        return gasCost;\n    }\n\n    function _gasCost2Pair() internal view returns (uint256) {\n        uint256[12] memory input =\n            [\n                G1_X,\n                G1_Y,\n                G2_X1,\n                G2_X0,\n                G2_Y1,\n                G2_Y0,\n                G1_X,\n                G1_Y,\n                G2_X1,\n                G2_X0,\n                N_G2_Y1,\n                N_G2_Y0\n            ];\n        uint256[1] memory out;\n        bool callSuccess;\n        uint256 suppliedGas = gasleft() - 2000;\n        require(\n            gasleft() > 2000,\n            \"BNPairingPrecompileCostEstimator: not enough gas, couple pair\"\n        );\n        uint256 gasT0 = gasleft();\n        \n        assembly {\n            callSuccess := staticcall(suppliedGas, 8, input, 384, out, 0x20)\n        }\n        uint256 gasCost = gasT0 - gasleft();\n        require(\n            callSuccess,\n            \"BNPairingPrecompileCostEstimator: couple pair call is failed\"\n        );\n        require(\n            out[0] == 1,\n            \"BNPairingPrecompileCostEstimator: couple pair call result must be 1\"\n        );\n        return gasCost;\n    }\n}\n",
  "sourcePath": "/Users/gregscullard/Documents/Development/GitHub/amit-supraoracles/bn254_sign_verify/contracts/BNPairingPrecompileCostEstimator.sol",
  "compiler": {
    "name": "solc",
    "version": "0.8.14+commit.80d49f37.Emscripten.clang"
  },
  "schemaVersion": "3.4.11",
  "updatedAt": "2023-02-02T12:50:29.734Z",
  "devdoc": {
    "kind": "dev",
    "methods": {},
    "version": 1
  },
  "userdoc": {
    "kind": "user",
    "methods": {},
    "version": 1
  }
}