{
  "contractName": "Verify",
  "abi": [
    {
      "inputs": [],
      "stateMutability": "nonpayable",
      "type": "constructor"
    },
    {
      "inputs": [],
      "name": "verify",
      "outputs": [
        {
          "internalType": "bool",
          "name": "",
          "type": "bool"
        }
      ],
      "stateMutability": "view",
      "type": "function"
    }
  ],
  "bytecode": "0x608060405234801561001057600080fd5b5060206000557f0426baca09607b981c659e9f4eef6091fd38bada2a10038594bd5bd49f12eb646001557f0427dd9575c7d5e43b321cf85a4eac65efad7d7090c05ba07190a990e2e53b6f6002557f16805aa9a9092410e3f0df030339fe8bbbd50cc6e37ae6ee42a90586a76fb7a96003557f05c9a4d2bdc57b404e873f798b562ed74cd9338e4c3ec466239aa5b4728f91b16004557f0860fd8f8a3f16c83113d541c0e753b06821de68c3207bff7a4708d93396e2216005557f2de999d59d22ce6773d6b4b1107b7ffa41d03e8ec8338739dda8bd4be1df5059600655611c5b806100fd6000396000f3fe608060405234801561001057600080fd5b506004361061002b5760003560e01c8063fc735e9914610030575b600080fd5b61003861004c565b604051901515815260200160405180910390f35b60408051808201918290526000917f321580d53f250a51ed527f5f7856bdd2ecbbf19f722ee6acc1804f63462375f391839182916101059160059060029082845b81548152602001906001019080831161008d5750506040805160808101918290529350600192506004915082845b8154815260200190600101908083116100bb575050505050610100600054876040516020016100ec91815260200190565b6040516020818303038152906040526101d8565b6102ae565b92509050816101815760405162461bcd60e51b815260206004820152602760248201527f496e636f7272656374205075626c69636b6579206f72205369676e617475726560448201527f20506f696e74730000000000000000000000000000000000000000000000000060648201526084015b60405180910390fd5b806101ce5760405162461bcd60e51b815260206004820152601760248201527f496e636f727265637420496e707574204d6573736167650000000000000000006044820152606401610178565b6001935050505090565b6101e0611ad0565b60006101ec8484610484565b9050600061020082825b6020020151610572565b9050600061020f8360016101f6565b9050610219611aee565b825181526020808401518282015282516040808401919091529083015160608301526000908460808460066107d05a03fa9050808061025457fe5b50806102a25760405162461bcd60e51b815260206004820152601760248201527f424c533a20626e206164642063616c6c206661696c65640000000000000000006044820152606401610178565b50919695505050505050565b6000806000604051806101800160405280876000600281106102d2576102d2611b2a565b60200201518152602001876001600281106102ef576102ef611b2a565b602002015181526020017f198e9393920d483a7260bfb731fb5d25f1aa493335a9e71297e485b7aef312c281526020017f1800deef121f1e76426a00665e5c4479674322d4f75edadd46debd5cd992f6ed81526020017f275dc4a288d1afb3cbb1ac09187524c7db36395df7be3b99e673b13a075a65ec81526020017f1d9befcd05a5323e6da4d435f3b617cdb3af83285c2df711ef39c01571827f9d8152602001856000600281106103a4576103a4611b2a565b60200201518152602001856001600281106103c1576103c1611b2a565b60200201518152602001866001600481106103de576103de611b2a565b60200201518152602001866000600481106103fb576103fb611b2a565b602002015181526020018660036004811061041857610418611b2a565b602002015181526020018660026004811061043557610435611b2a565b602002015190529050610446611b0c565b6306be45c8600060208361018086600886fa90508061046f57600080955095505050505061047c565b5050511515925060019150505b935093915050565b61048c611ad0565b6000610498848461097d565b90506000806000806018850177ffffffffffffffffffffffffffffffffffffffffffffffff815116935060308601905077ffffffffffffffffffffffffffffffffffffffffffffffff8151169450600080516020611c0683398151915285600080516020611c06833981519152600160c01b8709086048870151606088015177ffffffffffffffffffffffffffffffffffffffffffffffff90811697501694509250600080516020611c0683398151915290508481600160c01b860908604080518082019091529283526020830152509695505050505050565b61057a611ad0565b600080516020611c0683398151915282106105fd5760405162461bcd60e51b815260206004820152602360248201527f6d6170546f506f696e7446543a20696e76616c6964206669656c6420656c656d60448201527f656e7400000000000000000000000000000000000000000000000000000000006064820152608401610178565b81600061060982610c1a565b9150506000600080516020611c068339815191528061062a5761062a611b40565b8384099050600080516020611c068339815191526004820890506000600080516020611c0683398151915277b3c4d79d41a91759a9e4c7e359b6b89eaec68e62effffffd850990506000600080516020611c06833981519152838309905061069181610c43565b9050600080516020611c068339815191528283099150600080516020611c068339815191528183099150600080516020611c068339815191528286099150600080516020611c068339815191526106f683600080516020611c06833981519152611b6c565b7759e26bcea0d48bacd4f263f1acdb5c4f5763473177fffffe089450600080516020611c068339815191528586099150600080516020611c068339815191528583099150600080516020611c06833981519152600383089150600061075a83610c1a565b909350905080156107a257846107855761078283600080516020611c06833981519152611b6c565b92505b505060408051808201909152938452602084015250909392505050565b600080516020611c06833981519152600187086107cd90600080516020611c06833981519152611b6c565b9550600080516020611c068339815191528687099250600080516020611c068339815191528684099250600080516020611c0683398151915260038408925061081583610c1a565b9093509050801561083d57846107855761078283600080516020611c06833981519152611b6c565b600080516020611c068339815191528485099550600080516020611c068339815191528687099550600080516020611c068339815191528287099550600080516020611c068339815191528287099550600080516020611c06833981519152600187089550600080516020611c068339815191528687099250600080516020611c068339815191528684099250600080516020611c068339815191526003840892506108e883610c1a565b9093509050806109605760405162461bcd60e51b815260206004820152602260248201527f424c533a20626164206674206d617070696e6720696d706c656d656e7461746960448201527f6f6e0000000000000000000000000000000000000000000000000000000000006064820152608401610178565b846107855761078283600080516020611c06833981519152611b6c565b8051606090600061098f826020611b83565b61099a906040611b83565b6109a5906004611b83565b67ffffffffffffffff8111156109bd576109bd611b9b565b6040519080825280601f01601f1916602001820160405280156109e7576020820181803683370190505b5060408051606080825260808201909252919250600091906020820181803683370190505090506060820160005b84811015610a2f5760208188018101518383015201610a15565b5083016000815360010160608153600101600081536001810187905260210160208153506000600283604051610a659190611bb1565b602060405180830381855afa158015610a82573d6000803e3d6000fd5b5050506040513d601f19601f82011682018060405250810190610aa59190611bec565b9050600060429450848452816020850152600160408501536041840188905260206061850153600284604051610adb9190611bb1565b602060405180830381855afa158015610af8573d6000803e3d6000fd5b5050506040513d601f19601f82011682018060405250810190610b1b9190611bec565b905080602084015280821880602086015250600260408501536041840188905260206061850153600284604051610b529190611bb1565b602060405180830381855afa158015610b6f573d6000803e3d6000fd5b5050506040513d601f19601f82011682018060405250810190610b929190611bec565b905080604084015280821880602086015250600360408501536041840188905260206061850153600284604051610bc99190611bb1565b602060405180830381855afa158015610be6573d6000803e3d6000fd5b5050506040513d601f19601f82011682018060405250810190610c099190611bec565b606084015250909695505050505050565b600080610c2683610c54565b915082600080516020611c06833981519152838409149050915091565b6000610c4e82611389565b92915050565b6000600080516020611c068339815191528083840991508083830981838209828283098385830984848309858484098684850997508684840987858409945087898a09985087898a09985087898a09985087898a09985087898a09985087878a09985087898a09985087898a09985087898a099850878a8a09985087898a09985087898a09985087898a09985087898a099850878a8a09985087898a09985087898a09985087898a09985087898a09985087898a09985087848a09985087898a09985087898a09985087898a09985087898a09985087898a09985087848a09985087898a09985087898a09985087898a099850878a8a09985087898a09985087898a09985087898a09985087898a09985087848a09985087898a09985087898a09985087898a09985087898a09985087898a099850878a8a09985087898a09985087898a09985087898a09985087898a09985087878a09985087898a09985087898a09985087898a09985087898a09985087898a09985087898a09985087898a09985087818a09985087898a09985087898a09985087898a09985087898a09985087898a09985087898a09985087898a09985087898a09985087898a09985087898a09985087868a09985087898a09985087898a09985087898a09985087898a09985087878a09985087898a09985087898a09985087898a09985087898a09985087848a09985087898a09985087898a09985087898a09985087898a09985087898a09985087898a09985087898a09985087868a09985087898a09985087898a09985087898a09985087898a09985087898a09985087898a099850878a8a09985087898a09985087898a09985087898a09985087898a09985087898a09985087898a09985087898a09985087828a09985087898a09985087898a09985087898a09985087898a09985087898a09985087818a09985087898a09985087898a09985087898a09985087868a09985087898a09985087898a09985087898a09985087898a09985087898a09985087898a09985087898a09985087898a09985087878a09985087898a09985087898a09985087898a09985087898a09985087898a09985087898a09985087898a09985087898a09985087898a09985087868a09985087898a09985087898a09985087898a09985087878a09985087898a09985087898a09985087898a09985087898a09985087898a09985087898a09985087898a09985087898a09985087828a09985087898a09985087898a09985087898a09985087898a09985087828a09985087898a09985087898a09985087898a09985087898a09985087898a09985087868a09985087898a09985087898a09985087898a09985087848a09985087898a09985087898a09985087898a09985087898a09985087898a09985087898a09985087898a09985087898a09985087898a09985087898a09985087828a09985087898a09985087898a09985087898a09985087898a09985087868a09985087898a09985087898a09985087898a09985087898a09985087898a09985087838a09985087898a09985087898a09985087898a09985087898a09985087898a09985087898a09985087898a09985087828a09985087898a09985087898a099850878a8a09985087898a09985087898a09985087898a09985087898a09985087898a09985087898a09985087898a09985087848a09985087898a09985087898a09985087898a09985087898a09985087898a09985087898a09985087848a09985087898a09985087898a09985087898a09985087898a09985087898a09985087868a09985087898a09985087898a099850878a8a09985087898a09985087898a09985087898a09985087898a09985087898a09985087898a09985087898a09985087818a09985050868889099750868889099750868889099750868889099750868889099750868889099750868489099750868889099750868889099750868889099750868889099750868889099750868989099750868889099750868889099750868889099750868889099750868889099750868889099750868989099750868889099750868889099750868889099750868889099750868889099750868689099750868889099750868889099750868889099750868889099750868889099750868889099750868889099750868889099750868889099750868189099750508587880996508587880996508587880996508585880996508587880996508587880996508587880996508585880996508587880996508587880996508587880996508587880996508587880996508587880996508587880996508587880996508583880996508587880996508587880996508587880996508587880996508581880996508587880996508587880996508587880996508587880996508583880996508587880996508587880996508587880996508584880996508587880996508587880996508587880996508587880996508587880996508581880996505050505050808283099392505050565b6000600080516020611c068339815191528083840991508083830981838209828283098385830984848309858484098684850997508684840987858409945087898a09985087898a09985087898a09985087898a09985087898a09985087878a09985087898a09985087898a09985087898a099850878a8a09985087898a09985087898a09985087898a09985087898a099850878a8a09985087898a09985087898a09985087898a09985087898a09985087898a09985087848a09985087898a09985087898a09985087898a09985087898a09985087898a09985087848a09985087898a09985087898a09985087898a099850878a8a09985087898a09985087898a09985087898a09985087898a09985087848a09985087898a09985087898a09985087898a09985087898a09985087898a099850878a8a09985087898a09985087898a09985087898a09985087898a09985087878a09985087898a09985087898a09985087898a09985087898a09985087898a09985087898a09985087898a09985087818a09985087898a09985087898a09985087898a09985087898a09985087898a09985087898a09985087898a09985087898a09985087898a09985087898a09985087868a09985087898a09985087898a09985087898a09985087898a09985087878a09985087898a09985087898a09985087898a09985087898a09985087848a09985087898a09985087898a09985087898a09985087898a09985087898a09985087898a09985087898a09985087868a09985087898a09985087898a09985087898a09985087898a09985087898a09985087898a099850878a8a09985087898a09985087898a09985087898a09985087898a09985087898a09985087898a09985087898a09985087828a09985087898a09985087898a09985087898a09985087898a09985087898a09985087818a09985087898a09985087898a09985087898a09985087868a09985087898a09985087898a09985087898a09985087898a09985087898a09985087898a09985087898a09985087898a09985087878a09985087898a09985087898a09985087898a09985087898a09985087898a09985087898a09985087898a09985087898a09985087898a09985087868a09985087898a09985087898a09985087898a09985087878a09985087898a09985087898a09985087898a09985087898a09985087898a09985087898a09985087898a09985087898a09985087828a09985087898a09985087898a09985087898a09985087898a09985087828a09985087898a09985087898a09985087898a09985087898a09985087898a09985087868a09985087898a09985087898a09985087898a09985087848a09985087898a09985087898a09985087898a09985087898a09985087898a09985087898a09985087898a09985087898a09985087898a09985087898a09985087828a09985087898a09985087898a09985087898a09985087898a09985087868a09985087898a09985087898a09985087898a09985087898a09985087898a09985087838a09985087898a09985087898a09985087898a09985087898a09985087898a09985087898a09985087898a09985087828a09985087898a09985087898a099850878a8a09985087898a09985087898a09985087898a09985087898a09985087898a09985087898a09985087898a09985087848a09985087898a09985087898a09985087898a09985087898a09985087898a09985087898a09985087848a09985087898a09985087898a09985087898a09985087898a09985087898a09985087868a09985087898a09985087898a099850878a8a09985087898a09985087898a09985087898a09985087898a09985087898a09985087898a09985087898a09985087818a09985050868889099750868889099750868889099750868889099750868889099750868889099750868489099750868889099750868889099750868889099750868889099750868889099750868989099750868889099750868889099750868889099750868889099750868889099750868889099750868989099750868889099750868889099750868889099750868889099750868889099750868689099750868889099750868889099750868889099750868889099750868889099750868889099750868889099750868889099750868889099750868189099750508587880996508587880996508587880996508585880996508587880996508587880996508587880996508585880996508587880996508587880996508587880996508587880996508587880996508587880996508587880996508587880996508583880996508587880996508587880996508587880996508587880996508581880996505050838586099450838586099450838586099450838586099450838186099450508284850993508284850993508284850993508281850993508284850993508284850993508285850993508284850993508284850993508284850993508284850993508284850993508284850993508281850995945050505050565b60405180604001604052806002906020820280368337509192915050565b60405180608001604052806004906020820280368337509192915050565b60405180602001604052806001906020820280368337509192915050565b634e487b7160e01b600052603260045260246000fd5b634e487b7160e01b600052601260045260246000fd5b634e487b7160e01b600052601160045260246000fd5b600082821015611b7e57611b7e611b56565b500390565b60008219821115611b9657611b96611b56565b500190565b634e487b7160e01b600052604160045260246000fd5b6000825160005b81811015611bd25760208186018101518583015201611bb8565b81811115611be1576000828501525b509190910192915050565b600060208284031215611bfe57600080fd5b505191905056fe30644e72e131a029b85045b68181585d97816a916871ca8d3c208c16d87cfd47a2646970667358221220fe136dfaae23d6e74f67aa3779e64b3b79ce0835cd7bb2f5b2bbdc1f639ca98764736f6c634300080e0033",
  "immutableReferences": {},
  "source": "// SPDX-License-Identifier: MIT\npragma solidity ^0.8.7;\n\nimport \"./BLS.sol\";\n\ncontract Verify {\n    bytes32 domain;\n    uint256[4] publicKey; \n    uint256[2] signature;   \n\n    constructor() {\n        domain = 0x0000000000000000000000000000000000000000000000000000000000000020;\n        publicKey[0] =  1877680754511875309899085821046020641041516699522550968201931210511122361188;\n        publicKey[1] =  1879687745237862349771417085220368195630510774060410176566704734657946401647;\n        publicKey[2] =  10177664824327229270631241062558466194853353905576267792570130720130119743401;\n        publicKey[3] =  2617838070911723228053200997531205923494421078683439118196637157934995837361;\n\n        signature[0] = 3789870118542016974105699138161781008918636358438246688710078193373583696417;\n        signature[1] = 20766815278548398344257910495536643911108480586016736348038320126600861929561;\n    }\n\n    function verify() public view returns (bool) {\n        bytes32 message = 0x321580d53f250a51ed527f5f7856bdd2ecbbf19f722ee6acc1804f63462375f3;\n        bool callSuccess;\n        bool checkSuccess;\n        (checkSuccess, callSuccess) = BLS.verifySingle(signature, publicKey, BLS.hashToPoint(domain, abi.encode(message)));\n        require(callSuccess, \"Incorrect Publickey or Signature Points\");\n        require(checkSuccess, \"Incorrect Input Message\");\n        return true;\n    }\n}\n\n\n",
  "sourcePath": "/Users/gregscullard/Documents/Development/GitHub/amit-supraoracles/bn254_sign_verify/contracts/Verify.sol",
  "compiler": {
    "name": "solc",
    "version": "0.8.14+commit.80d49f37.Emscripten.clang"
  },
  "schemaVersion": "3.4.11",
  "updatedAt": "2023-02-02T12:50:29.744Z",
  "devdoc": {
    "kind": "dev",
    "methods": {},
    "version": 1
  },
  "userdoc": {
    "kind": "user",
    "methods": {},
    "version": 1
  }
}